{
  "_format": "hh-sol-artifact-1",
  "contractName": "Defisalary",
  "sourceName": "contracts/Defisalary.sol",
  "abi": [
    {
      "inputs": [
        {
          "internalType": "address",
          "name": "_priceFeedAddress",
          "type": "address"
        }
      ],
      "stateMutability": "nonpayable",
      "type": "constructor"
    },
    {
      "inputs": [
        {
          "internalType": "address",
          "name": "owner",
          "type": "address"
        }
      ],
      "name": "OwnableInvalidOwner",
      "type": "error"
    },
    {
      "inputs": [
        {
          "internalType": "address",
          "name": "account",
          "type": "address"
        }
      ],
      "name": "OwnableUnauthorizedAccount",
      "type": "error"
    },
    {
      "anonymous": false,
      "inputs": [
        {
          "indexed": true,
          "internalType": "uint256",
          "name": "id",
          "type": "uint256"
        },
        {
          "indexed": false,
          "internalType": "string",
          "name": "name",
          "type": "string"
        },
        {
          "indexed": false,
          "internalType": "address",
          "name": "walletAddress",
          "type": "address"
        },
        {
          "indexed": false,
          "internalType": "uint256",
          "name": "salaryUSD",
          "type": "uint256"
        }
      ],
      "name": "EmployeeAdded",
      "type": "event"
    },
    {
      "anonymous": false,
      "inputs": [
        {
          "indexed": true,
          "internalType": "uint256",
          "name": "id",
          "type": "uint256"
        }
      ],
      "name": "EmployeeRemoved",
      "type": "event"
    },
    {
      "anonymous": false,
      "inputs": [
        {
          "indexed": true,
          "internalType": "uint256",
          "name": "id",
          "type": "uint256"
        },
        {
          "indexed": false,
          "internalType": "string",
          "name": "name",
          "type": "string"
        },
        {
          "indexed": false,
          "internalType": "bool",
          "name": "isActive",
          "type": "bool"
        },
        {
          "indexed": false,
          "internalType": "address",
          "name": "walletAddress",
          "type": "address"
        },
        {
          "indexed": false,
          "internalType": "uint256",
          "name": "salaryUSD",
          "type": "uint256"
        }
      ],
      "name": "EmployeeUpdated",
      "type": "event"
    },
    {
      "anonymous": false,
      "inputs": [
        {
          "indexed": true,
          "internalType": "address",
          "name": "previousOwner",
          "type": "address"
        },
        {
          "indexed": true,
          "internalType": "address",
          "name": "newOwner",
          "type": "address"
        }
      ],
      "name": "OwnershipTransferred",
      "type": "event"
    },
    {
      "anonymous": false,
      "inputs": [
        {
          "indexed": true,
          "internalType": "uint256",
          "name": "id",
          "type": "uint256"
        },
        {
          "indexed": false,
          "internalType": "uint256",
          "name": "amountUSD",
          "type": "uint256"
        },
        {
          "indexed": false,
          "internalType": "uint256",
          "name": "amountEth",
          "type": "uint256"
        }
      ],
      "name": "SalaryPaid",
      "type": "event"
    },
    {
      "stateMutability": "payable",
      "type": "fallback"
    },
    {
      "inputs": [
        {
          "internalType": "string",
          "name": "_name",
          "type": "string"
        },
        {
          "internalType": "address",
          "name": "_walletAdd",
          "type": "address"
        },
        {
          "internalType": "uint256",
          "name": "_salaryUSD",
          "type": "uint256"
        }
      ],
      "name": "addEmployee",
      "outputs": [
        {
          "internalType": "uint256",
          "name": "",
          "type": "uint256"
        }
      ],
      "stateMutability": "nonpayable",
      "type": "function"
    },
    {
      "inputs": [
        {
          "internalType": "address",
          "name": "newOwner",
          "type": "address"
        }
      ],
      "name": "changeOwner",
      "outputs": [],
      "stateMutability": "nonpayable",
      "type": "function"
    },
    {
      "inputs": [
        {
          "internalType": "bytes",
          "name": "",
          "type": "bytes"
        }
      ],
      "name": "checkUpkeep",
      "outputs": [
        {
          "internalType": "bool",
          "name": "upkeepNeeded",
          "type": "bool"
        },
        {
          "internalType": "bytes",
          "name": "performData",
          "type": "bytes"
        }
      ],
      "stateMutability": "view",
      "type": "function"
    },
    {
      "inputs": [
        {
          "internalType": "uint256",
          "name": "",
          "type": "uint256"
        }
      ],
      "name": "employees",
      "outputs": [
        {
          "internalType": "string",
          "name": "name",
          "type": "string"
        },
        {
          "internalType": "address",
          "name": "walletAdd",
          "type": "address"
        },
        {
          "internalType": "bool",
          "name": "isActive",
          "type": "bool"
        },
        {
          "internalType": "uint256",
          "name": "salaryUSD",
          "type": "uint256"
        },
        {
          "internalType": "uint256",
          "name": "joiningDate",
          "type": "uint256"
        },
        {
          "internalType": "uint256",
          "name": "lastPaymentDate",
          "type": "uint256"
        },
        {
          "internalType": "uint256",
          "name": "id",
          "type": "uint256"
        }
      ],
      "stateMutability": "view",
      "type": "function"
    },
    {
      "inputs": [],
      "name": "getContractBalance",
      "outputs": [
        {
          "internalType": "uint256",
          "name": "",
          "type": "uint256"
        }
      ],
      "stateMutability": "view",
      "type": "function"
    },
    {
      "inputs": [],
      "name": "getEmployeesCount",
      "outputs": [
        {
          "internalType": "uint256",
          "name": "",
          "type": "uint256"
        }
      ],
      "stateMutability": "view",
      "type": "function"
    },
    {
      "inputs": [],
      "name": "getLatestETHPrice",
      "outputs": [
        {
          "internalType": "uint256",
          "name": "",
          "type": "uint256"
        }
      ],
      "stateMutability": "view",
      "type": "function"
    },
    {
      "inputs": [],
      "name": "owner",
      "outputs": [
        {
          "internalType": "address",
          "name": "",
          "type": "address"
        }
      ],
      "stateMutability": "view",
      "type": "function"
    },
    {
      "inputs": [
        {
          "internalType": "bytes",
          "name": "performData",
          "type": "bytes"
        }
      ],
      "name": "performUpkeep",
      "outputs": [],
      "stateMutability": "nonpayable",
      "type": "function"
    },
    {
      "inputs": [],
      "name": "priceFeed",
      "outputs": [
        {
          "internalType": "contract AggregatorV3Interface",
          "name": "",
          "type": "address"
        }
      ],
      "stateMutability": "view",
      "type": "function"
    },
    {
      "inputs": [
        {
          "internalType": "uint256",
          "name": "_id",
          "type": "uint256"
        }
      ],
      "name": "removeEmployee",
      "outputs": [],
      "stateMutability": "nonpayable",
      "type": "function"
    },
    {
      "inputs": [],
      "name": "renounceOwnership",
      "outputs": [],
      "stateMutability": "nonpayable",
      "type": "function"
    },
    {
      "inputs": [
        {
          "internalType": "address",
          "name": "newOwner",
          "type": "address"
        }
      ],
      "name": "transferOwnership",
      "outputs": [],
      "stateMutability": "nonpayable",
      "type": "function"
    },
    {
      "inputs": [
        {
          "internalType": "string",
          "name": "_newName",
          "type": "string"
        },
        {
          "internalType": "address",
          "name": "_newWallet",
          "type": "address"
        },
        {
          "internalType": "bool",
          "name": "_isActive",
          "type": "bool"
        },
        {
          "internalType": "uint256",
          "name": "_newSalaryUSD",
          "type": "uint256"
        },
        {
          "internalType": "uint256",
          "name": "_id",
          "type": "uint256"
        }
      ],
      "name": "updateEmployeeDetails",
      "outputs": [],
      "stateMutability": "nonpayable",
      "type": "function"
    },
    {
      "inputs": [
        {
          "internalType": "uint256",
          "name": "_amountUSD",
          "type": "uint256"
        }
      ],
      "name": "usdToEth",
      "outputs": [
        {
          "internalType": "uint256",
          "name": "",
          "type": "uint256"
        }
      ],
      "stateMutability": "view",
      "type": "function"
    },
    {
      "inputs": [],
      "name": "withdrawFunds",
      "outputs": [],
      "stateMutability": "nonpayable",
      "type": "function"
    },
    {
      "stateMutability": "payable",
      "type": "receive"
    }
  ],
  "bytecode": "0x608060405234801561001057600080fd5b50604051612c75380380612c7583398181016040528101906100329190610223565b33600073ffffffffffffffffffffffffffffffffffffffff168173ffffffffffffffffffffffffffffffffffffffff16036100a55760006040517f1e4fbdf700000000000000000000000000000000000000000000000000000000815260040161009c919061025f565b60405180910390fd5b6100b4816100fc60201b60201c565b5080600160006101000a81548173ffffffffffffffffffffffffffffffffffffffff021916908373ffffffffffffffffffffffffffffffffffffffff1602179055505061027a565b60008060009054906101000a900473ffffffffffffffffffffffffffffffffffffffff169050816000806101000a81548173ffffffffffffffffffffffffffffffffffffffff021916908373ffffffffffffffffffffffffffffffffffffffff1602179055508173ffffffffffffffffffffffffffffffffffffffff168173ffffffffffffffffffffffffffffffffffffffff167f8be0079c531659141344cd1fd0a4f28419497f9722a3daafe3b4186f6b6457e060405160405180910390a35050565b600080fd5b600073ffffffffffffffffffffffffffffffffffffffff82169050919050565b60006101f0826101c5565b9050919050565b610200816101e5565b811461020b57600080fd5b50565b60008151905061021d816101f7565b92915050565b600060208284031215610239576102386101c0565b5b60006102478482850161020e565b91505092915050565b610259816101e5565b82525050565b60006020820190506102746000830184610250565b92915050565b6129ec806102896000396000f3fe6080604052600436106100f75760003560e01c8063741bef1a1161008a578063947fd61e11610059578063947fd61e1461030f578063a6f9dae114610338578063bcecf66714610361578063f2fde38b1461039e576100f8565b8063741bef1a1461026357806375b784261461028e578063777e0d86146102b95780638da5cb5b146102e4576100f8565b80636cf947cf116100c65780636cf947cf146101a65780636e04ff0d146101e35780636f9fb98a14610221578063715018a61461024c576100f8565b806321ed0f64146100fa57806324600fc3146101235780634585e33b1461013a5780634739326b14610163576100f8565b5b005b34801561010657600080fd5b50610121600480360381019061011c91906114b2565b6103c7565b005b34801561012f57600080fd5b50610138610503565b005b34801561014657600080fd5b50610161600480360381019061015c9190611544565b61060a565b005b34801561016f57600080fd5b5061018a600480360381019061018591906114b2565b610662565b60405161019d979695949392919061168c565b60405180910390f35b3480156101b257600080fd5b506101cd60048036038101906101c8919061185e565b610769565b6040516101da91906118cd565b60405180910390f35b3480156101ef57600080fd5b5061020a60048036038101906102059190611989565b6109f0565b604051610218929190611a27565b60405180910390f35b34801561022d57600080fd5b50610236610b6b565b60405161024391906118cd565b60405180910390f35b34801561025857600080fd5b50610261610b73565b005b34801561026f57600080fd5b50610278610b87565b6040516102859190611ab6565b60405180910390f35b34801561029a57600080fd5b506102a3610bad565b6040516102b091906118cd565b60405180910390f35b3480156102c557600080fd5b506102ce610bba565b6040516102db91906118cd565b60405180910390f35b3480156102f057600080fd5b506102f9610cae565b6040516103069190611ad1565b60405180910390f35b34801561031b57600080fd5b5061033660048036038101906103319190611b18565b610cd7565b005b34801561034457600080fd5b5061035f600480360381019061035a9190611baf565b610ef8565b005b34801561036d57600080fd5b50610388600480360381019061038391906114b2565b610f0c565b60405161039591906118cd565b60405180910390f35b3480156103aa57600080fd5b506103c560048036038101906103c09190611baf565b610f59565b005b6103cf610fdf565b6002805490508110610416576040517f08c379a000000000000000000000000000000000000000000000000000000000815260040161040d90611c28565b60405180910390fd5b600115156002828154811061042e5761042d611c48565b5b906000526020600020906006020160010160149054906101000a900460ff1615151461048f576040517f08c379a000000000000000000000000000000000000000000000000000000000815260040161048690611cc3565b60405180910390fd5b6000600282815481106104a5576104a4611c48565b5b9060005260206000209060060201905060008160010160146101000a81548160ff021916908315150217905550817f0a62528f10ed8443c60096694c08cf43c78b8849dbe92caf3b1f0895e254950460405160405180910390a25050565b61050b610fdf565b600047905060008111610553576040517f08c379a000000000000000000000000000000000000000000000000000000000815260040161054a90611d2f565b60405180910390fd5b600061055d610cae565b73ffffffffffffffffffffffffffffffffffffffff168260405161058090611d80565b60006040518083038185875af1925050503d80600081146105bd576040519150601f19603f3d011682016040523d82523d6000602084013e6105c2565b606091505b5050905080610606576040517f08c379a00000000000000000000000000000000000000000000000000000000081526004016105fd90611de1565b60405180910390fd5b5050565b600080838381019061061c9190611ec4565b9150915060005b8181101561065b5761064e83828151811061064157610640611c48565b5b6020026020010151611066565b8080600101915050610623565b5050505050565b6002818154811061067257600080fd5b906000526020600020906006020160009150905080600001805461069590611f4f565b80601f01602080910402602001604051908101604052809291908181526020018280546106c190611f4f565b801561070e5780601f106106e35761010080835404028352916020019161070e565b820191906000526020600020905b8154815290600101906020018083116106f157829003601f168201915b5050505050908060010160009054906101000a900473ffffffffffffffffffffffffffffffffffffffff16908060010160149054906101000a900460ff16908060020154908060030154908060040154908060050154905087565b6000610773610fdf565b60008451116107b7576040517f08c379a00000000000000000000000000000000000000000000000000000000081526004016107ae90611fcc565b60405180910390fd5b600073ffffffffffffffffffffffffffffffffffffffff168373ffffffffffffffffffffffffffffffffffffffff161415801561082057503073ffffffffffffffffffffffffffffffffffffffff168373ffffffffffffffffffffffffffffffffffffffff1614155b61085f576040517f08c379a000000000000000000000000000000000000000000000000000000000815260040161085690612038565b60405180910390fd5b60006040518060e001604052808681526020018573ffffffffffffffffffffffffffffffffffffffff1681526020016001151581526020018481526020014281526020014281526020016002805490508152509050600281908060018154018082558091505060019003906000526020600020906006020160009091909190915060008201518160000190816108f591906121fa565b5060208201518160010160006101000a81548173ffffffffffffffffffffffffffffffffffffffff021916908373ffffffffffffffffffffffffffffffffffffffff16021790555060408201518160010160146101000a81548160ff021916908315150217905550606082015181600201556080820151816003015560a0820151816004015560c082015181600501555050600160028054905061099991906122fb565b7f13ee661f8ce7ccdf69c90de65d4d8d75ea9e87c3a0c49e603510268c33435b3e8686866040516109cc9392919061232f565b60405180910390a260016002805490506109e691906122fb565b9150509392505050565b60006060600060028054905067ffffffffffffffff811115610a1557610a14611707565b5b604051908082528060200260200182016040528015610a435781602001602082028036833780820191505090505b5090506000805b600280549050811015610b0a5760028181548110610a6b57610a6a611c48565b5b906000526020600020906006020160010160149054906101000a900460ff168015610ac9575062278d0060028281548110610aa957610aa8611c48565b5b90600052602060002090600602016004015442610ac691906122fb565b10155b15610afd5780838381518110610ae257610ae1611c48565b5b6020026020010181815250508180610af99061236d565b9250505b8080600101915050610a4a565b506000811115610b4d576001935060008282604051602001610b2d929190612473565b604051602081830303815290604052905060018194509450505050610b66565b6000604051806020016040528060008152509350935050505b915091565b600047905090565b610b7b610fdf565b610b85600061139c565b565b600160009054906101000a900473ffffffffffffffffffffffffffffffffffffffff1681565b6000600280549050905090565b600080600160009054906101000a900473ffffffffffffffffffffffffffffffffffffffff1673ffffffffffffffffffffffffffffffffffffffff1663feaf968c6040518163ffffffff1660e01b815260040160a060405180830381865afa158015610c2a573d6000803e3d6000fd5b505050506040513d601f19601f82011682018060405250810190610c4e9190612530565b50505091505060008113610c97576040517f08c379a0000000000000000000000000000000000000000000000000000000008152600401610c8e906125f7565b60405180910390fd5b6402540be40081610ca89190612617565b91505090565b60008060009054906101000a900473ffffffffffffffffffffffffffffffffffffffff16905090565b610cdf610fdf565b6002805490508110610d26576040517f08c379a0000000000000000000000000000000000000000000000000000000008152600401610d1d90611c28565b60405180910390fd5b6000855111610d6a576040517f08c379a0000000000000000000000000000000000000000000000000000000008152600401610d6190611fcc565b60405180910390fd5b600073ffffffffffffffffffffffffffffffffffffffff168473ffffffffffffffffffffffffffffffffffffffff1614158015610dd357503073ffffffffffffffffffffffffffffffffffffffff168473ffffffffffffffffffffffffffffffffffffffff1614155b610e12576040517f08c379a0000000000000000000000000000000000000000000000000000000008152600401610e0990612038565b60405180910390fd5b600060028281548110610e2857610e27611c48565b5b9060005260206000209060060201905085816000019081610e4991906121fa565b50848160010160006101000a81548173ffffffffffffffffffffffffffffffffffffffff021916908373ffffffffffffffffffffffffffffffffffffffff160217905550838160010160146101000a81548160ff021916908315150217905550828160020181905550817f30466cb2478ac39a9d664a7de4a1b92ed4fd7efe214c5ae3ba1a252b549ac68e87868887604051610ee89493929190612659565b60405180910390a2505050505050565b610f00610fdf565b610f0981610f59565b50565b600080670de0b6b3a764000083610f239190612617565b90506000610f2f610bba565b905080670de0b6b3a764000083610f469190612617565b610f5091906126d4565b92505050919050565b610f61610fdf565b600073ffffffffffffffffffffffffffffffffffffffff168173ffffffffffffffffffffffffffffffffffffffff1603610fd35760006040517f1e4fbdf7000000000000000000000000000000000000000000000000000000008152600401610fca9190611ad1565b60405180910390fd5b610fdc8161139c565b50565b610fe7611460565b73ffffffffffffffffffffffffffffffffffffffff16611005610cae565b73ffffffffffffffffffffffffffffffffffffffff161461106457611028611460565b6040517f118cdaa700000000000000000000000000000000000000000000000000000000815260040161105b9190611ad1565b60405180910390fd5b565b61106e610cae565b73ffffffffffffffffffffffffffffffffffffffff163373ffffffffffffffffffffffffffffffffffffffff1614806110d257503073ffffffffffffffffffffffffffffffffffffffff163373ffffffffffffffffffffffffffffffffffffffff16145b611111576040517f08c379a000000000000000000000000000000000000000000000000000000000815260040161110890612751565b60405180910390fd5b6002805490508110611158576040517f08c379a000000000000000000000000000000000000000000000000000000000815260040161114f906127bd565b60405180910390fd5b60006002828154811061116e5761116d611c48565b5b906000526020600020906006020190508060010160149054906101000a900460ff166111cf576040517f08c379a00000000000000000000000000000000000000000000000000000000081526004016111c690612829565b60405180910390fd5b62278d008160040154426111e391906122fb565b1015611224576040517f08c379a000000000000000000000000000000000000000000000000000000000815260040161121b90612895565b60405180910390fd5b60006112338260020154610f0c565b90508061123e610b6b565b101561127f576040517f08c379a000000000000000000000000000000000000000000000000000000000815260040161127690612901565b60405180910390fd5b42826004018190555060008260010160009054906101000a900473ffffffffffffffffffffffffffffffffffffffff1673ffffffffffffffffffffffffffffffffffffffff16826040516112d290611d80565b60006040518083038185875af1925050503d806000811461130f576040519150601f19603f3d011682016040523d82523d6000602084013e611314565b606091505b5050905080611358576040517f08c379a000000000000000000000000000000000000000000000000000000000815260040161134f9061296d565b60405180910390fd5b837ffe0ba696ce15d2b477007284c7acfee99418b06d2fa57653cad12b780266854184600201548460405161138e92919061298d565b60405180910390a250505050565b60008060009054906101000a900473ffffffffffffffffffffffffffffffffffffffff169050816000806101000a81548173ffffffffffffffffffffffffffffffffffffffff021916908373ffffffffffffffffffffffffffffffffffffffff1602179055508173ffffffffffffffffffffffffffffffffffffffff168173ffffffffffffffffffffffffffffffffffffffff167f8be0079c531659141344cd1fd0a4f28419497f9722a3daafe3b4186f6b6457e060405160405180910390a35050565b600033905090565b6000604051905090565b600080fd5b600080fd5b6000819050919050565b61148f8161147c565b811461149a57600080fd5b50565b6000813590506114ac81611486565b92915050565b6000602082840312156114c8576114c7611472565b5b60006114d68482850161149d565b91505092915050565b600080fd5b600080fd5b600080fd5b60008083601f840112611504576115036114df565b5b8235905067ffffffffffffffff811115611521576115206114e4565b5b60208301915083600182028301111561153d5761153c6114e9565b5b9250929050565b6000806020838503121561155b5761155a611472565b5b600083013567ffffffffffffffff81111561157957611578611477565b5b611585858286016114ee565b92509250509250929050565b600081519050919050565b600082825260208201905092915050565b60005b838110156115cb5780820151818401526020810190506115b0565b60008484015250505050565b6000601f19601f8301169050919050565b60006115f382611591565b6115fd818561159c565b935061160d8185602086016115ad565b611616816115d7565b840191505092915050565b600073ffffffffffffffffffffffffffffffffffffffff82169050919050565b600061164c82611621565b9050919050565b61165c81611641565b82525050565b60008115159050919050565b61167781611662565b82525050565b6116868161147c565b82525050565b600060e08201905081810360008301526116a6818a6115e8565b90506116b56020830189611653565b6116c2604083018861166e565b6116cf606083018761167d565b6116dc608083018661167d565b6116e960a083018561167d565b6116f660c083018461167d565b98975050505050505050565b600080fd5b7f4e487b7100000000000000000000000000000000000000000000000000000000600052604160045260246000fd5b61173f826115d7565b810181811067ffffffffffffffff8211171561175e5761175d611707565b5b80604052505050565b6000611771611468565b905061177d8282611736565b919050565b600067ffffffffffffffff82111561179d5761179c611707565b5b6117a6826115d7565b9050602081019050919050565b82818337600083830152505050565b60006117d56117d084611782565b611767565b9050828152602081018484840111156117f1576117f0611702565b5b6117fc8482856117b3565b509392505050565b600082601f830112611819576118186114df565b5b81356118298482602086016117c2565b91505092915050565b61183b81611641565b811461184657600080fd5b50565b60008135905061185881611832565b92915050565b60008060006060848603121561187757611876611472565b5b600084013567ffffffffffffffff81111561189557611894611477565b5b6118a186828701611804565b93505060206118b286828701611849565b92505060406118c38682870161149d565b9150509250925092565b60006020820190506118e2600083018461167d565b92915050565b600067ffffffffffffffff82111561190357611902611707565b5b61190c826115d7565b9050602081019050919050565b600061192c611927846118e8565b611767565b90508281526020810184848401111561194857611947611702565b5b6119538482856117b3565b509392505050565b600082601f8301126119705761196f6114df565b5b8135611980848260208601611919565b91505092915050565b60006020828403121561199f5761199e611472565b5b600082013567ffffffffffffffff8111156119bd576119bc611477565b5b6119c98482850161195b565b91505092915050565b600081519050919050565b600082825260208201905092915050565b60006119f9826119d2565b611a0381856119dd565b9350611a138185602086016115ad565b611a1c816115d7565b840191505092915050565b6000604082019050611a3c600083018561166e565b8181036020830152611a4e81846119ee565b90509392505050565b6000819050919050565b6000611a7c611a77611a7284611621565b611a57565b611621565b9050919050565b6000611a8e82611a61565b9050919050565b6000611aa082611a83565b9050919050565b611ab081611a95565b82525050565b6000602082019050611acb6000830184611aa7565b92915050565b6000602082019050611ae66000830184611653565b92915050565b611af581611662565b8114611b0057600080fd5b50565b600081359050611b1281611aec565b92915050565b600080600080600060a08688031215611b3457611b33611472565b5b600086013567ffffffffffffffff811115611b5257611b51611477565b5b611b5e88828901611804565b9550506020611b6f88828901611849565b9450506040611b8088828901611b03565b9350506060611b918882890161149d565b9250506080611ba28882890161149d565b9150509295509295909350565b600060208284031215611bc557611bc4611472565b5b6000611bd384828501611849565b91505092915050565b7f4964206e6f742076616c69640000000000000000000000000000000000000000600082015250565b6000611c12600c8361159c565b9150611c1d82611bdc565b602082019050919050565b60006020820190508181036000830152611c4181611c05565b9050919050565b7f4e487b7100000000000000000000000000000000000000000000000000000000600052603260045260246000fd5b7f456d706c6f79656520697320616c726561647920696e61637469766500000000600082015250565b6000611cad601c8361159c565b9150611cb882611c77565b602082019050919050565b60006020820190508181036000830152611cdc81611ca0565b9050919050565b7f4e6f2066756e647320746f207769746864726177000000000000000000000000600082015250565b6000611d1960148361159c565b9150611d2482611ce3565b602082019050919050565b60006020820190508181036000830152611d4881611d0c565b9050919050565b600081905092915050565b50565b6000611d6a600083611d4f565b9150611d7582611d5a565b600082019050919050565b6000611d8b82611d5d565b9150819050919050565b7f5769746864726177206661696c65640000000000000000000000000000000000600082015250565b6000611dcb600f8361159c565b9150611dd682611d95565b602082019050919050565b60006020820190508181036000830152611dfa81611dbe565b9050919050565b600067ffffffffffffffff821115611e1c57611e1b611707565b5b602082029050602081019050919050565b6000611e40611e3b84611e01565b611767565b90508083825260208201905060208402830185811115611e6357611e626114e9565b5b835b81811015611e8c5780611e78888261149d565b845260208401935050602081019050611e65565b5050509392505050565b600082601f830112611eab57611eaa6114df565b5b8135611ebb848260208601611e2d565b91505092915050565b60008060408385031215611edb57611eda611472565b5b600083013567ffffffffffffffff811115611ef957611ef8611477565b5b611f0585828601611e96565b9250506020611f168582860161149d565b9150509250929050565b7f4e487b7100000000000000000000000000000000000000000000000000000000600052602260045260246000fd5b60006002820490506001821680611f6757607f821691505b602082108103611f7a57611f79611f20565b5b50919050565b7f4e616d652063616e6e6f7420626520656d707479000000000000000000000000600082015250565b6000611fb660148361159c565b9150611fc182611f80565b602082019050919050565b60006020820190508181036000830152611fe581611fa9565b9050919050565b7f496e76616c696420416464726573730000000000000000000000000000000000600082015250565b6000612022600f8361159c565b915061202d82611fec565b602082019050919050565b6000602082019050818103600083015261205181612015565b9050919050565b60008190508160005260206000209050919050565b60006020601f8301049050919050565b600082821b905092915050565b6000600883026120ba7fffffffffffffffffffffffffffffffffffffffffffffffffffffffffffffffff8261207d565b6120c4868361207d565b95508019841693508086168417925050509392505050565b60006120f76120f26120ed8461147c565b611a57565b61147c565b9050919050565b6000819050919050565b612111836120dc565b61212561211d826120fe565b84845461208a565b825550505050565b600090565b61213a61212d565b612145818484612108565b505050565b5b818110156121695761215e600082612132565b60018101905061214b565b5050565b601f8211156121ae5761217f81612058565b6121888461206d565b81016020851015612197578190505b6121ab6121a38561206d565b83018261214a565b50505b505050565b600082821c905092915050565b60006121d1600019846008026121b3565b1980831691505092915050565b60006121ea83836121c0565b9150826002028217905092915050565b61220382611591565b67ffffffffffffffff81111561221c5761221b611707565b5b6122268254611f4f565b61223182828561216d565b600060209050601f8311600181146122645760008415612252578287015190505b61225c85826121de565b8655506122c4565b601f19841661227286612058565b60005b8281101561229a57848901518255600182019150602085019450602081019050612275565b868310156122b757848901516122b3601f8916826121c0565b8355505b6001600288020188555050505b505050505050565b7f4e487b7100000000000000000000000000000000000000000000000000000000600052601160045260246000fd5b60006123068261147c565b91506123118361147c565b9250828203905081811115612329576123286122cc565b5b92915050565b6000606082019050818103600083015261234981866115e8565b90506123586020830185611653565b612365604083018461167d565b949350505050565b60006123788261147c565b91507fffffffffffffffffffffffffffffffffffffffffffffffffffffffffffffffff82036123aa576123a96122cc565b5b600182019050919050565b600081519050919050565b600082825260208201905092915050565b6000819050602082019050919050565b6123ea8161147c565b82525050565b60006123fc83836123e1565b60208301905092915050565b6000602082019050919050565b6000612420826123b5565b61242a81856123c0565b9350612435836123d1565b8060005b8381101561246657815161244d88826123f0565b975061245883612408565b925050600181019050612439565b5085935050505092915050565b6000604082019050818103600083015261248d8185612415565b905061249c602083018461167d565b9392505050565b600069ffffffffffffffffffff82169050919050565b6124c2816124a3565b81146124cd57600080fd5b50565b6000815190506124df816124b9565b92915050565b6000819050919050565b6124f8816124e5565b811461250357600080fd5b50565b600081519050612515816124ef565b92915050565b60008151905061252a81611486565b92915050565b600080600080600060a0868803121561254c5761254b611472565b5b600061255a888289016124d0565b955050602061256b88828901612506565b945050604061257c8882890161251b565b935050606061258d8882890161251b565b925050608061259e888289016124d0565b9150509295509295909350565b7f496e76616c696420707269636520646174610000000000000000000000000000600082015250565b60006125e160128361159c565b91506125ec826125ab565b602082019050919050565b60006020820190508181036000830152612610816125d4565b9050919050565b60006126228261147c565b915061262d8361147c565b925082820261263b8161147c565b91508282048414831517612652576126516122cc565b5b5092915050565b6000608082019050818103600083015261267381876115e8565b9050612682602083018661166e565b61268f6040830185611653565b61269c606083018461167d565b95945050505050565b7f4e487b7100000000000000000000000000000000000000000000000000000000600052601260045260246000fd5b60006126df8261147c565b91506126ea8361147c565b9250826126fa576126f96126a5565b5b828204905092915050565b7f4e6f7420617574686f72697a6564000000000000000000000000000000000000600082015250565b600061273b600e8361159c565b915061274682612705565b602082019050919050565b6000602082019050818103600083015261276a8161272e565b9050919050565b7f496e76616c696420494400000000000000000000000000000000000000000000600082015250565b60006127a7600a8361159c565b91506127b282612771565b602082019050919050565b600060208201905081810360008301526127d68161279a565b9050919050565b7f456d706c6f79656520696e616374697665000000000000000000000000000000600082015250565b600061281360118361159c565b915061281e826127dd565b602082019050919050565b6000602082019050818103600083015261284281612806565b9050919050565b7f4e6f7420656c696769626c652079657400000000000000000000000000000000600082015250565b600061287f60108361159c565b915061288a82612849565b602082019050919050565b600060208201905081810360008301526128ae81612872565b9050919050565b7f496e73756666696369656e742066756e64730000000000000000000000000000600082015250565b60006128eb60128361159c565b91506128f6826128b5565b602082019050919050565b6000602082019050818103600083015261291a816128de565b9050919050565b7f5061796d656e74206661696c6564000000000000000000000000000000000000600082015250565b6000612957600e8361159c565b915061296282612921565b602082019050919050565b600060208201905081810360008301526129868161294a565b9050919050565b60006040820190506129a2600083018561167d565b6129af602083018461167d565b939250505056fea2646970667358221220ba1cfa0721cb03f766a5fe2897c258f4cc1480718d3e1ccd1057236d09c541a664736f6c634300081e0033",
  "linkReferences": {},
  "deployedLinkReferences": {}
}